:020000040000FA
:0600000063EF0EF0120098
:020006001200E6
:080008009EAA02D063EF0BF089
:020010001200DC
:06001200A6B2FED71200A9
:08001800F2A402D0EAEF0AF0A5
:0C0020001200D08E9F8AF28EF28C12002B
:04002C000600681F43
:1000300000000A0F000002000000671F00000F0F01
:10004000000001000000531E000000090000140120
:100050000000311E00001E0E000022000000131ED2
:100060000000000E00001E0000000D1D0000000B2F
:0600700000000601000083
:0A007600D9CFE6FFE1CFD9FFFE0E5F
:10008000DBCF01F9FD0EDBCF02F9FC0EDBCF03F96C
:10009000FB0EDBCF04F9F90EDBCF09FAFA0EDBCF4A
:1000A0000AFA04D8E552E7CFD9FF1200240EE66E13
:1000B000F40EE66EE66AE66A64EC04F0E552E55298
:1000C000E552E5520A01056B066B010E006F076BE6
:1000D000050E086F0FCA0BFA10CA0CFA11CA0DFAF6
:1000E00012CA0EFA00C913FA12000A01056B066B58
:1000F000010E006F076B050E086F0FCA0BFA10CACE
:100100000CFA11CA0DFA12CA0EFA00C913FA12003B
:10011000D9CFE6FFE1CFD9FF060EE126DF6AECEC8E
:100120000BF004C00FFA05C010FA06C011FA07C0A0
:1001300012FA0B0EE96E0A0EEA6EEE500A010F1962
:1001400009E1EE50101906E1EE50111903E1EE50ED
:10015000121900E113E00051135D08E1020E005D89
:1001600005E10807085102E1A1DFBED00FCA0BFA72
:1001700010CA0CFA11CA0DFA12CA0EFA0051030A7B
:1001800001E1ADD0010A16E0030A02E0AEDFAAD019
:100190001DEC06F0000901E1A7D03AEC06F0DF6E95
:1001A00009010151DF5C05E1056B020E006F050ED0
:1001B000086F98D01DEC06F0000901E195D03AECEB
:1001C00006F0DF6E09010251DF5C74E1020EDB6AAA
:1001D000030EDB68D950030FE66E000EDA20E66EE0
:1001E0008DD8E552E552E76E020EE7CFDBFFDB501C
:1001F000020A54E0030A05E0010A01E057D075DF66
:1002000073D00A0109510A1147E0D950040FE66E74
:10021000000EDA20E66E070EE66E0A0EE66E070E98
:10022000E66E090EE66E05D00ACAFAFF0A01095108
:10023000F96EFADF106E060EE15E10500A01066FCD
:10024000FA0E856F062B07CA86F9062BDE52020EC0
:10025000DD6E0651F36E010EDBCFF4FFF350F45C5C
:100260001AE2040EDBCFE9FF050EDBCFEAFFEF5009
:10027000E66E010EDB50EA6A850FE96E090EEA228E
:10028000E552E750EF6E040EDB2A050E01E3DB2A90
:10029000010EDB2ADED701D028DF08D00901FA0ED3
:1002A000856F062B07CA86F9062B00D00901030EBD
:1002B000006F14D00551052BEA6A050FE96E090E8F
:1002C000EA22DFCFEFFF800E055D08E3FA0E856FAF
:1002D000062B900E866F062B030E006F03D05AD8A4
:1002E00004DF00D000C913FA060EE15C02E2E16A05
:1002F000E552E16EE552E7CFD9FF1200D9CFE6FF14
:10030000E1CFD9FF020EE1260A010505EA6A050FD1
:10031000E96E090EEA22EFCFDFFF010EDB6AFA0E6B
:10032000055D05E0FA0E055D02E0000E27D005052B
:10033000E66E050EE66E090EE66E9AD8E552E552B7
:10034000E552E76E010EE7CFDBFFDB50DF5C0CE12F
:100350000A0105070551EA6A050FE96E090EEA224E
:10036000EF6A010E0BD00AD0FD0EDBCFE9FFFE0EC7
:10037000DBCFEAFF910EEF6E000E00D0106E020E82
:10038000E15C02E2E16AE552E16E1050E552E7CF2E
:10039000D9FF1200D9CFE6FFE1CFD9FF020EE12647
:1003A000DF6A010EDB6A06CAE6FF850EE66E090EFD
:1003B000E66E5ED8E552E552E552DF6E03C9E6FF10
:1003C000E2EC04F0E552010EDB6A0A010651F36E1D
:1003D000010EDBCFF4FFF350F45C0FE2010EDB50B3
:1003E000EA6A850FE96E090EEA22EF50E66EE2EC4A
:1003F00004F0E552010EDB2AE8D7DFCFE6FFE2EC9E
:1004000004F0E55204C9E6FFE2EC04F0E5521AEC10
:1004100005F0020EE15C02E2E16AE552E16EE552AE
:10042000E7CFD9FF1200D9CFE6FFE1CFD9FFFD0E0C
:10043000DBCFF6FFFE0EDBCFF7FF0800F55012E032
:10044000FD0EDBCFF6FFFE0EDBCFF7FF0800F55009
:10045000E66EE2EC04F0E552FD0EDB2AFE0E01E34F
:10046000DB2AE5D71AEC05F0E552E7CFD9FF1200F9
:10047000D9CFE6FFE1CFD9FF030EE126DF6A010EF7
:10048000DB6AFC0EDB50F36E010EDBCFF4FFF350A2
:10049000F45C12E2010EDB50E76EFD0EDBCFE9FFEC
:1004A000FE0EDBCFEAFFE750E926000EEA22EF500E
:1004B000DF1A010EDB2AE5D7DF50106E030EE15C78
:1004C00003E200D0E16AE552E16E1050E552E7CF59
:1004D000D9FF1200D9CFE6FFE1CFD9FF300EE126D8
:1004E000DF6AD950010FE96EDACFEAFFEE6AEE6AF1
:1004F000EE6AEE6AEE6AEE6AEE6AEE6AEE6AEE6A3C
:10050000EE6AEE6AEE6AEE6AEE6AEE6AEE6AEE6A2B
:10051000EE6AEE6AEE6AEE6AEE6AEE6AEE6AEE6A1B
:10052000EE6AEE6AEE6AEE6AEE6AEE6AEE6AEE6A0B
:10053000EE6AEE6AEE6AEE6AEE6AEE6AEE6AEE6AFB
:10054000EE6AEE6A2D0EDB6AD9CF10F0DACF11F029
:10055000DBCFF3FFDB2AF3500F011024E96E000E0E
:100560001120EA6EAA0EEF6ED9CF10F0DACF11F09B
:100570002D0EDBCFF3FFDB2AF3501024E96E000EC3
:100580001120EA6EFE0EDBCFEFFFD9CF10F0DACFED
:1005900011F02D0EDBCFF3FFDB2AF3501024E96EB0
:1005A000000E1120EA6EFB0EDBCFEFFF2E0EDB6A92
:1005B000FB0EDB50F36E2E0EDBCFF4FFF350F45C3A
:1005C00025E22E0EDB50E76EFC0EDBCFE9FFFD0EC1
:1005D000DBCFEAFFE750E926000EEA22EF50E66E95
:1005E000D9CF10F0DACF11F02E0EDBCFE6FF2D0EB3
:1005F000DB50E552E7241024E96E000E1120EA6E6C
:10060000E552E750EF6E2E0EDB2AD2D72D0EDBCF50
:10061000E7FF2E0EDB50E7262D0EE7CFDBFFDB04D6
:10062000E66ED950010FE66E000EDA20E66E20DF8E
:10063000E552E552E552E76E2F0EE7CFDBFFDB50C8
:10064000AA0804E02F0EDB50BB0814E1020EDB2ADF
:100650002D0EDB04E66ED950010FE66E000EDA2097
:10066000E66E06DFE552E552E552E76E2F0EE7CF64
:10067000DBFFE5D7D9CF10F0DACF11F02D0EDBCFAD
:10068000F3FFDB2AF3500F011024E96E000E112056
:10069000EA6E2F0EDBCFEFFFD9CF10F0DACF11F0DB
:1006A0002D0EDBCFF3FFDB2AF3501024E96E000E92
:1006B0001120EA6EBB0EEF6E2E0EDB6A2D0EDB50A4
:1006C000F36E2E0EDBCFF4FFF350F45C14E2D9CFBF
:1006D00010F0DACF11F02E0EDB500F011024E96E6E
:1006E000000E1120EA6EEF50E66EE2EC04F0E552E7
:1006F0002E0EDB2AE3D71AEC05F0300EE15C02E2A5
:0E070000E16AE552E16EE552E7CFD9FF120043
:02070E00DACF40
:10071000E4FFE2CFDAFFE9CFE4FFEACFE4FFF6CF70
:10072000E4FFF7CFE4FFF5CFE4FFF3CFE4FFF4CF2E
:10073000E4FFFACFE4FF00EE00F0100EE80403E35C
:10074000EECFE4FFFBD700EE10F0040EE80403E365
:10075000EECFE4FFFBD7E652D9CFE6FFE1CFD9FFDA
:10076000E652AFEC0DF0DF6E0C018951892BEA6A7D
:100770008C0FE96E0C0EEA22DFCFEFFF800E895D51
:1007800001E3896B8B2BA49AE552E552E7CFD9FFA1
:10079000E55200EE13F0040EE80403E3E5CFEDFFAD
:1007A000FBD700EE0FF0100EE80403E3E5CFEDFFFA
:1007B000FBD7E5CFFAFFE5CFF4FFE5CFF3FFE5CFB9
:1007C000F5FFE5CFF7FFE5CFF6FFE5CFEAFFE5CF91
:1007D000E9FFE5CFDAFF1100DACFE4FFE2CFDAFF7D
:1007E000E9CFE4FFEACFE4FFE652D9CFE6FFE1CF5D
:1007F000D9FFE6520B01025104E1ACA2FED7AC9A3C
:100800001BD00151EA6A030FE96E0B0EEA22EFCF0B
:10081000DFFFDF50AD6E012B800E015D01E3016B48
:10082000000EE76E0219E8AE02D0023503D0E750A1
:10083000D880025501E20207E552E552E7CFD9FF21
:10084000E552E5CFEAFFE5CFE9FFE5CFDAFF11009A
:10085000DACFE4FFE2CFDAFFE9CFE4FFEACFE4FF4B
:10086000E652D9CFE6FFE1CFD9FFE6520C0108519D
:1008700004E172A2FED7729A1BD00751EA6A090FEF
:10088000E96E0C0EEA22EFCFDFFFDF50736E072B0D
:10089000800E075D01E3076B000EE76E0819E8AEF6
:1008A00002D0083503D0E750D880085501E2080788
:1008B000E552E552E7CFD9FFE552E5CFEAFFE5CFB4
:1008C000E9FFE5CFDAFF1100D9CFE6FFE1CFD9FF8D
:1008D000E6527C0EDF6ED950FB0FE96EFF0EDA2078
:1008E000EA6EEE2A000EEE22EE22EE22D950FB0F27
:1008F000E96EFF0EDA20EA6E040EE76ED890EF364E
:10090000010EEB36020EEB36030EEB36E706F6E190
:10091000106A240E116EF40E126E136A10C004F0E9
:1009200011C005F012C006F013C007F0FB0EDBCFBC
:1009300009F0FC0EDBCF0AF0FD0EDBCF0BF0FE0E54
:10094000DBCF0CF08BEC0DF0FB0E04C0DBFFFC0EDC
:1009500005C0DBFFFD0E06C0DBFFFE0E07C0DBFFA0
:10096000FB0EDBCFE6FFFC0EDBCFE6FFDFCFE6FFC3
:1009700024EC0DF0E552E552E552AC8AAC9E9D8A1E
:100980009F88E552E552E7CFD9FF1200D9CFE6FFA5
:10099000E1CFD9FFE6527C0EDF6E670EE66EE66AA7
:1009A000DFCFE6FFE8EC0CF0E552E552E552D08EE1
:1009B000718E728A729EA38AA58AE552E552E7CFAC
:1009C000D9FF1200D9CFE6FFE1CFD9FFACA2FED705
:1009D0000B010051002BEA6A030FE96E0B0EEA22AD
:1009E000FE0EDBCFEFFF022B800E005D01E3006BFC
:1009F000010E00D0E552E7CFD9FF1200D9CFE6FFB4
:100A0000E1CFD9FF72A2FED70C010651062BEA6A8C
:100A1000090FE96E0C0EEA22FE0EDBCFEFFF082B6A
:100A2000800E065D01E3066B010E00D0E552E7CFB4
:100A3000D9FF1200D9CFE6FFE1CFD9FF060EE1269C
:100A4000010EF36E020EF3CFDBFF030EDB6A020E24
:100A5000DBCF10F0DB06030EDBCF11F001E2DB068B
:100A60001050111006E0040EE66E43EC0EF0E55255
:100A7000EED7000E0B01E76E0219E8AE02D0023588
:100A800003D0E750D880025523E20151EA6A030FF0
:100A9000E96E0B0EEA22010EEFCFDBFFACA2FED710
:100AA000010EDB50AD6EACA2FED70B01012B800E08
:100AB000015D01E3016B000EE76E0219E8AE02D0A2
:100AC000023503D0E750D880025501E20207D1D7A2
:100AD000010EF36E040EF3CFDBFF050EDB6A040E8E
:100AE000DBCF10F0DB06050EDBCF11F001E2DB06F9
:100AF0001050111006E0040EE66E43EC0EF0E552C5
:100B0000EED7106E060EE15C02E2E16AE552E16E9C
:100B10001050E552E7CFD9FF1200D9CFE6FFE1CF61
:100B2000D9FF060EE126010EF36E020EF3CFDBFFB6
:100B3000030EDB6A020EDBCF10F0DB06030EDBCF09
:100B400011F001E2DB061050111006E0040EE66E13
:100B500043EC0EF0E552EED7000E0C01E76E0819DB
:100B6000E8AE02D0083503D0E750D880085523E21C
:100B70000751EA6A090FE96E0C0EEA22010EEFCF67
:100B8000DBFF72A2FED7010EDB50736E72A2FED79E
:100B90000C01072B800E075D01E3076B000EE76E6B
:100BA0000819E8AE02D0083503D0E750D8800855C0
:100BB00001E20807D1D7010EF36E040EF3CFDBFF7D
:100BC000050EDB6A040EDBCF10F0DB06050EDBCF73
:100BD00011F001E2DB061050111006E0040EE66E83
:100BE00043EC0EF0E552EED7106E060EE15C02E229
:100BF000E16AE552E16E1050E552E7CFD9FF1200ED
:100C0000D9CFE6FFE1CFD9FFE652DF6AA39A000E03
:100C10000C01E76E8B19E8AE02D08B3503D0E7509C
:100C2000D8808B5502E2010EDF6EA38ADF5000D020
:100C3000E552E552E7CFD9FF1200D9CFE6FFE1CF69
:100C4000D9FFE652DF6A9D9A000E0B01E76E851907
:100C5000E8AE02D0853503D0E750D880855502E252
:100C6000010EDF6E9D8ADF5000D0E552E552E7CFDE
:100C7000D9FF1200D9CFE6FFE1CFD9FFE6529D9A06
:100C80000B018451842BEA6A860FE96E0B0EEA226F
:100C9000EFCFDFFF800E845D01E3846B000EE76E13
:100CA0008519E8AE02D0853503D0E750D880855548
:100CB00001E285079D8ADF5000D0E552E552E7CF7B
:100CC000D9FF1200D9CFE6FFE1CFD9FFE652A39AB0
:100CD0000C018A518A2BEA6A8C0FE96E0C0EEA220B
:100CE000EFCFDFFF800E8A5D01E38A6B000EE76EB7
:100CF0008B19E8AE02D08B3503D0E750D8808B55E6
:100D000001E28B079D8ADF5000D0E552E552E7CF24
:040D1000D9FF1200F5
:0C0D1400C20EE66E100EE66EDD0EE66EFE
:100D2000CC0EE66EBB0EE66EAA0EE66E3BEC00F055
:100D3000106E060EE15E105012001200D9CFE6FFD1
:100D4000E1CFD9FFE652DF6A030EDF5C1AE2DF5023
:100D5000E76EFD0EDBCFE9FFFE0EDBCFEAFFE750CB
:100D6000E926000EEA22EF50E66EDFCFE6FFE66AE4
:100D7000ACEC0CF0E552E552E55209EC00F0DF2A4C
:100D8000E3D7E552E552E7CFD9FF1200D9CFE6FF0E
:100D9000E1CFD9FFE652DF6A030EDF5C1BE2DFCF53
:100DA000E6FFE66A5DEC0DF0E552E552E66EDF50D7
:100DB000E76EFD0EDBCFE9FFFE0EDBCFEAFFE7506B
:100DC000E926000EEA22E552E750EF6E09EC00F04A
:100DD000DF2AE2D7E552E552E7CFD9FF1200D9CF9B
:100DE000E6FFE1CFD9FF020EE126010EDB6A020E1B
:100DF000E76EFD0EDBCFE9FFFE0EDBCFEAFFE7502B
:100E0000E926000EEA22EFCF10F0390E105C0EE258
:100E1000020EE76EFD0EDBCFE9FFFE0EDBCFEAFF31
:100E2000E750E926000EEA22EF2A51D0020EE76EC3
:100E3000FD0EDBCFE9FFFE0EDBCFEAFFE750E92630
:100E4000000EEA22300EEF6E010EE76EFD0EDBCFD4
:100E5000E9FFFE0EDBCFEAFFE750E926000EEA22AB
:100E6000EFCF10F0390E105C0EE2010EE76EFD0EB2
:100E7000DBCFE9FFFE0EDBCFEAFFE750E926000EED
:100E8000EA22EF2A24D0010EE76EFD0EDBCFE9FF48
:100E9000FE0EDBCFEAFFE750E926000EEA22300E15
:100EA000EF6EFD0EDBCFE9FFFE0EDBCFEAFFEFCFEB
:100EB00010F0390E105C08E2FD0EDBCFE9FFFE0EEC
:100EC000DBCFEAFFEF2A03D0DE52010EDD6E010E0A
:100ED000DB0414E1DF6A030EDF5C10E2DF50E76E33
:100EE000FD0EDBCFE9FFFE0EDBCFEAFFE750E92680
:100EF000000EEA22300EEF6EDF2AEDD7030EE66E0B
:100F0000FD0EDBCFE6FFFE0EDBCFE6FFFA0EE66E50
:100F10006AEC02F0E552E552E552E552020EE15C60
:100F200002E2E16AE552E16EE552E7CFD9FF120035
:100F3000D9CFE6FFE1CFD9FF020EE126010EDB6A31
:100F4000020EE76EFD0EDBCFE9FFFE0EDBCFEAFF00
:100F5000E750E926000EEA22EF5030080EE2020EBA
:100F6000E76EFD0EDBCFE9FFFE0EDBCFEAFFE750B9
:100F7000E926000EEA22EF065BD0010EE76EFD0EB9
:100F8000DBCFE9FFFE0EDBCFEAFFE750E926000EDC
:100F9000EA22EF5030081CE2010EE76EFD0EDBCFB7
:100FA000E9FFFE0EDBCFEAFFE750E926000EEA225A
:100FB000EF06020EE76EFD0EDBCFE9FFFE0EDBCF84
:100FC000EAFFE750E926000EEA22390EEF6E30D034
:100FD000FD0EDBCFE9FFFE0EDBCFEAFFEF5030085E
:100FE00024E2FD0EDBCFE9FFFE0EDBCFEAFFEF06CA
:100FF000010EE76EFD0EDBCFE9FFFE0EDBCFEAFF51
:10100000E750E926000EEA22390EEF6E020EE76E77
:10101000FD0EDBCFE9FFFE0EDBCFEAFFE750E9264E
:10102000000EEA22390EEF6E03D0DE52010EDD6EA5
:10103000010EDB0414E1DF6A030EDF5C10E2DF5017
:10104000E76EFD0EDBCFE9FFFE0EDBCFEAFFE750D8
:10105000E926000EEA22390EEF6EDF2AEDD7030EE5
:10106000E66EFD0EDBCFE6FFFE0EDBCFE6FFFA0EEF
:10107000E66E6AEC02F0E552E552E552E552020EE8
:10108000E15C02E2E16AE552E16EE552E7CFD9FFA9
:101090001200D9CFE6FFE1CFD9FF030EE66EFD0EB9
:1010A000DBCFE6FFFE0EDBCFE6FFFA0EE66E6AEC64
:1010B00002F0E552E552E552E552E552E7CFD9FF9D
:1010C0001200D9CFE6FFE1CFD9FF030EE126FD0ED6
:1010D000DBCFE9FFFE0EDBCFEAFF010EEFCFDBFF38
:1010E000020EDB6A010EDB50A00A30E0010A23E0A9
:1010F000030A16E0220A0BE0020EDB6AFB0EDBCFCE
:10110000E9FFFC0EDBCFEAFF920EEF6E2AD0FB0E5A
:10111000DBCFE9FFFC0EDBCFEAFF800EEF6E21D0C4
:10112000FB0EDBCFE9FFFC0EDBCFEAFFA20EEF6E7A
:10113000020EDB6A16D0FB0EDBCFE9FFFC0EDBCF25
:10114000EAFFA10EEF6E020EDB6A0BD0020EDB6A25
:10115000FB0EDBCFE9FFFC0EDBCFEAFFA00EEF6E4C
:1011600000D0020EDB50106E030EE15C03E200D0F3
:10117000E16AE552E16E1050E552E7CFD9FF120067
:10118000D9CFE6FFE1CFD9FF030EE126300EF36E93
:10119000010EF3CFDBFF750EF36E020EF3CFDBFF14
:1011A000010EDF6EDF0425E105DA00000000839206
:1011B0008384000000008386000000008350800BC1
:1011C00001E0010EDF6E83968386000000008396A7
:1011D000010EDB06020E01E2DB06D950010FE96EBB
:1011E000DACFEAFFEE50ED1003E1ECD9FF0E04D0A8
:1011F000D9D7E8D9000E00D0106E030EE15C02E2F0
:10120000E16AE552E16E1050E552E7CFD9FF1200D6
:10121000D9CFE6FFE1CFD9FF839283940000FE0E81
:10122000DB50F00B106E0F0E8C1410108C6E000043
:101230008386000000008396E552E7CFD9FF1200B5
:10124000D9CFE6FFE1CFD9FF9BDF839283940000E3
:10125000FE0EDB50F00B106E0F0E8C1410108C6E07
:1012600000008386000000008396FE0EDB38F00B42
:10127000F00B106E0F0E8C1410108C6E0000838615
:10128000000000008396E552E7CFD9FF1200D9CFC6
:10129000E6FFE1CFD9FF74DF838283940000FE0E66
:1012A000DB50F00B106E0F0E8C1410108C6E0000C3
:1012B0008386000000008396FE0EDB38F00BF00BF7
:1012C000106E0F0E8C1410108C6E000083860000C0
:1012D00000008396E552E7CFD9FF1200D9CFE6FF91
:1012E000E1CFD9FF0B0EE1266DD9280EF36E010E6A
:1012F000F3CFDBFF020EDB6A010EDBCF10F0DB0663
:10130000020EDBCF11F001E2DB061050111006E0F7
:10131000040EE66E43EC0EF0E552EED7300EE66EAC
:1013200077DFE5520A0EF36E030EF3CFDBFF040EF8
:10133000DB6A030EDBCF10F0DB06040EDBCF11F00F
:1013400001E2DB061050111006E0040EE66E43ECDD
:101350000EF0E552EED7300EE66E5ADFE5520A0E79
:10136000F36E050EF3CFDBFF060EDB6A050EDBCF57
:1013700010F0DB06060EDBCF11F001E2DB061050A9
:10138000111006E0040EE66E43EC0EF0E552EED7C7
:10139000300EE66E3DDFE5520A0EF36E070EF3CF18
:1013A000DBFF080EDB6A070EDBCF10F0DB06080E52
:1013B000DBCF11F001E2DB061050111006E0040E45
:1013C000E66E43EC0EF0E552EED7200EE66E20DF1F
:1013D000E5520A0EF36E090EF3CFDBFF0A0EDB6A4D
:1013E000090EDBCF10F0DB060A0EDBCF11F001E2B5
:1013F000DB061050111006E0040EE66E43EC0EF012
:10140000E552EED7280EE66E1BDFE552B9DEDF6E41
:10141000DF5010E10F0EE66E13DFE552010EE66EAF
:101420000FDFE552040EE66E0BDFE552060EE66EA8
:1014300007DFE5520B0EE15C03E200D0E16AE55202
:10144000E16EE552E7CFD9FF1200D9CFE6FFE1CF39
:10145000D9FFFE0EDBCF1FFEE552E7CFD9FF12000A
:10146000010EE66EEDDEE5520E011E6B1200D9CFC5
:10147000E6FFE1CFD9FFE652FE0EDB500E011F5D05
:1014800023E11E5101E137D0100E1E5D0EE1800EEA
:10149000E66ED6DEE552DF6A100EDF5C06E2140E61
:1014A000E66ECEDEE552DF2AF7D7100EE66EC8DE16
:1014B000E552200EE66EEBDEE552100EE66EC0DE63
:1014C000E5520E011E0717D0100E1E5D05E1C00E7D
:1014D000E66EB6DEE55208D0200E1E5D05E31E6BFB
:1014E000020EE66EADDEE552FE0EDBCFE6FFCFDE8E
:1014F000E5520E011E2BE552E552E7CFD9FF12004F
:10150000EDDE010EE66E9CDEE5520E011E6B120052
:10151000D9CFE6FFE1CFD9FFE652010EE66E90DEAD
:10152000E552DF6A100EDF5C1CE2FD0EDBCFE9FF47
:10153000FE0EDBCFEAFFEF50E66EDF50EA6A200FC7
:10154000E96E0E0EEA22E552E750EF6EFD0EDBCF9C
:10155000E9FFDB2AFE0EDBCFEAFF01E3DB2ADF2A0D
:10156000E1D7C00EE66E6CDEE552DF6A100EDF5C7E
:101570001CE2FD0EDBCFE9FFFE0EDBCFEAFFEF50F2
:10158000E66EDF50EA6A200FE96E0E0EEA22E5529F
:10159000E750EF6EFD0EDBCFE9FFDB2AFE0EDBCF5F
:1015A000EAFF01E3DB2ADF2AE1D7E552E552E7CF84
:1015B000D9FF1200958E958C958A9588959695946D
:1015C00095921200959E959C959A959895969594CE
:0415D00095921200DE
:0C15D400DACFE4FFE2CFDAFFE9CFE4FF5A
:1015E000EACFE4FFF6CFE4FFF7CFE4FFF5CFE4FF67
:1015F000F3CFE4FFF4CFE4FFFACFE4FF00EE00F016
:10160000100EE80403E3EECFE4FFFBD700EE10F08A
:10161000040EE80403E3EECFE4FFFBD7E652F294B6
:101620000E010E2B000E0F23102B1123122B132350
:10163000142B1523162B17231807195B193504E2F1
:1016400018510008000E195508E31A2B000E1B2331
:101650001C231D23C80E186F196B0251031107E0DC
:1016600005D003CEFAFF0E010251F96EFADF00CE6B
:10167000E6FF01CEE6FF0BEC0EF0E552E552E55237
:1016800000EE13F0040EE80403E3E5CFEDFFFBD713
:1016900000EE0FF0100EE80403E3E5CFEDFFFBD7FB
:1016A000E5CFFAFFE5CFF4FFE5CFF3FFE5CFF5FF98
:1016B000E5CFF7FFE5CFF6FFE5CFEAFFE5CFE9FF9E
:1016C000E5CFDAFF1100DACFE4FFE2CFDAFFE9CFAE
:1016D000E4FFEACFE4FFF6CFE4FFF7CFE4FFF5CF76
:1016E000E4FFF3CFE4FFF4CFE4FFFACFE4FF00EE32
:1016F00000F0100EE80403E3EECFE4FFFBD700EEAA
:1017000010F0040EE80403E3EECFE4FFFBD7E6524B
:10171000D9CFE6FFE1CFD9FFE652CEEC0DF0DF6E78
:101720000B018351832BEA6A860FE96E0B0EEA22C6
:10173000DFCFEFFF800E835D01E3836B852B9E9AE5
:10174000E552E552E7CFD9FFE55200EE13F0040E63
:10175000E80403E3E5CFEDFFFBD700EE0FF0100E3A
:10176000E80403E3E5CFEDFFFBD7E5CFFAFFE5CFD4
:10177000F4FFE5CFF3FFE5CFF5FFE5CFF7FFE5CFCA
:10178000F6FFE5CFEAFFE5CFE9FFE5CFDAFF11008D
:10179000D9CFE6FFE1CFD9FF9F0EE66E27EC0EF022
:1017A000E552FD0EDBCF00FEFE0EDBCF01FEFB0E91
:1017B000DBCF02FEFC0EDBCF03FEF194FD0EDBCF90
:1017C000E6FFFE0EDBCFE6FF0BEC0EF0E552E55236
:1017D000E552E7CFD9FF1200D9CFE6FFE1CFD9FF1D
:1017E000040EE126F29A1ACEDFFF010E1BCEDBFFBC
:1017F000020E1CCEDBFF030E1DCEDBFFF28ADECF16
:1018000004F0DECF05F0DECF06F0DDCF07F0DD52CD
:10181000DD52040EE15C03E200D0E16AE552E16EC4
:10182000E552E7CFD9FF1200F29E0E011A6B1B6B37
:081830001C6B1D6BF28E12000F
:081838002C0EF66E000EF76E97
:10184000000EF86E0F010900F550056F0900F55004
:10185000066F03E1056701D03DD00900F550006F28
:101860000900F550016F0900F550026F09000900E9
:10187000F550E96E0900F550EA6E0900090009000B
:10188000F550036F0900F550046F09000900F6CF09
:1018900007FFF7CF08FFF8CF09FF00CFF6FF01CF12
:1018A000F7FF02CFF8FF0F01035302E1045307E0F3
:1018B0000900F550EE6E0307F8E20407F9D707CFE9
:1018C000F6FF08CFF7FF09CFF8FF0F010507000E5D
:0618D000065BBFD7120009
:0A18D600D9CFE6FFE1CFD9FFE652BB
:1018E000EDEC0DF0000EE66EE66AE00EE66EB10E6F
:1018F000E66EC8EC0BF0E552E552E552E55280EC9D
:101900000AF08AEC06F011EC00F00E01640E0E5D98
:10191000000E0F5905E374EC0EF00E010E6B0F6B09
:101920000E01020E125D000E135905E388EC00F063
:101930000E01126B136B0E01F40E145D010E15599E
:1019400005E39DEC06F00E01146B156BDED7E55236
:08195000E552E7CFD9FF1200B8
:08195800D9CFE6FFDACFE6FF6C
:10196000E1CFD9FFE2CFDAFFE652DF6AFD0EDBCF2F
:1019700011F011C010F0030E1114AA6EFF0EE76EE5
:10198000FC0EDBCF10F0E7501016116A1050A96E54
:10199000FB0EDB50A86EA69EA69CA684F250800B80
:1019A00001E0010EDF6EF29E550EA76EAA0EA76E25
:1019B000A682A6B2FED7DF50E8B0F28EE8A0F29E73
:1019C000A694E552E552E5CFDAFFE7CFD9FF120042
:1019D000D9CFE6FFDACFE6FFE1CFD9FFE2CFDAFFDA
:1019E000726A716AFD0EDBB07288DBA202D0728C63
:1019F000718CDBB4728EDBA602D0718801D0718A43
:101A0000DBA802D0728401D07294DBBA7186DBACA1
:101A100002D0A38A01D0A39ADBAE02D0A38801D062
:101A2000A398FB0EDB50756EFC0EDBCF11F011C0DE
:101A300010F0116A1050766E728A718EE552E5CF01
:081A4000DAFFE7CFD9FF120025
:081A4800D9CFE6FFDACFE6FF7B
:101A5000E1CFD9FFE2CFDAFFAC6AAB6AFD0EDBB0B3
:101A6000AC88DBA202D0AC8CAB8CDBB4AC8EDBA63A
:101A700002D0AB8801D0AB8ADBB8AC84DBBAAB86D2
:101A8000DBAC02D09D8A01D09D9ADBAE02D09D884E
:101A900001D09D98FB0EDB50AF6EFC0EDBCF11F03A
:101AA00011C010F0116A1050B06EAC8AAB8EE552C6
:0A1AB000E5CFDAFFE7CFD9FF1200FF
:061ABA00D9CFE6FFDACFF0
:101AC000E6FFE1CFD9FFE2CFDAFFFC0EDBCF10F06B
:101AD000FD0EDBCF11F011C010F0116A030E1014CF
:101AE000AA6EFF0EE76EFC0EDBCF10F0FD0EDBCF13
:101AF00011F0E7501016116A1050A96EA69CA69E10
:101B0000A68000000000A85000D0E552E5CFDAFF23
:061B1000E7CFD9FF12002F
:0A1B1600036A026A016A006A200EE9
:101B2000E76ED8900436053606360736003601369D
:101B3000023603360950005C0A5001580B50025817
:101B40000C50035809E30950005E0A50015A0B502B
:0E1B5000025A0C50035A042AE72EE4D7120062
:021B5E00D9CFDD
:101B6000E6FFDACFE6FFE1CFD9FFE2CFDAFFE652B8
:101B7000F20E0F010C1771AC03D00C9171B00C81F7
:101B800071B40C8571B20C877450DF6EDF50E55272
:0C1B9000E552E5CFDAFFE7CFD9FF1200E5
:041B9C00D9CFE6FFB8
:101BA000DACFE6FFE1CFD9FFE2CFDAFFE652F20E5D
:101BB0000F010D17ABAC03D00D91ABB00D81ABB4E1
:101BC0000D85ABB20D87AE50DF6EDF50E552E552AA
:0A1BD000E5CFDAFFE7CFD9FF1200DE
:061BDA00C26A0F01386B26
:101BE000396B3A6B3B6B3C6B700ED36E9690849066
:101BF000949C948E959E959C959A9598959695947F
:101C0000959281689296809692908090929480941A
:061C100092928092120086
:0A1C1600D9CFE6FFDACFE6FFE1CFF9
:101C2000D9FFE2CFDAFFE652E652FC0EDBCFDEFF51
:101C3000DBCFDDFF010EDB50D76EDF50D66EE552F5
:0E1C4000E552E552E5CFDAFFE7CFD9FF1200FB
:021C4E00D9CFEC
:101C5000E6FFDACFE6FFE1CFD9FFE2CFDAFFFD0EF4
:101C6000DB507F0BD56ED76AD66AF294FD0EDBAEE1
:101C700002D0F28A01D0F29AD58EE552E5CFDAFF92
:061C8000E7CFD9FF1200BE
:0A1C8600FF0EE350146E480E01D06B
:101C90004C0EE76EE72EFED7E76AE72EFED7142E2E
:061CA000F7D7000012005E
:0A1CA600380EF36E00EE00F00F0E92
:101CB00001D81200EA6002D0EE6AFCD7F350E96066
:061CC0001200EE6AFCD7E1
:0A1CC60010EE60F020EE60F0F86A06
:101CD0000F9C1CEC0CF003EC00F06BEC0CF0FBD751
:021CE0001200F0
:0E1CE2000F010F6B12000F010F0503E10F6BD6
:0C1CF000849003D0010E0F6F848012005E
:041CFC002020202064
:0D1D00002020202020202020202020200056
:031D0D00000000D3
:101D100000000000000000000000000000000000C3
:101D200000000000000000000000000000000000B3
:101D300000000000000000000000000000000000A3
:101D40000000000000000000000000000000000093
:101D50000000000000000000000000000000000083
:101D60000000000000000000000000000000000073
:101D70000000000000000000000000000000000063
:101D80000000000000000000000000000000000053
:101D90000000000000000000000000000000000043
:101DA0000000000000000000000000000000000033
:101DB0000000000000000000000000000000000023
:101DC0000000000000000000000000000000000013
:101DD0000000000000000000000000000000000003
:101DE00000000000000000000000000000000000F3
:101DF00000000000000000000000000000000000E3
:101E000000000000000000000000000000000000D2
:031E1000000000CF
:0D1E130000000000000000000000000000C2
:101E20000000000000000000000000C800000000EA
:011E300000B1
:0F1E3100000000000000000000000000000000A2
:101E40000000000000000000000000000000000092
:031E50000000008F
:0D1E53000000000000000000000000000082
:101E60000000000000000000000000000000000072
:101E70000000000000000000000000000000000062
:101E80000000000000000000000000000000000052
:101E90000000000000000000000000000000000042
:101EA0000000000000000000000000000000000032
:101EB0000000000000000000000000000000000022
:101EC0000000000000000000000000000000000012
:101ED0000000000000000000000000000000000002
:101EE00000000000000000000000000000000000F2
:101EF00000000000000000000000000000000000E2
:101F000000000000000000000000000000000000D1
:101F100000000000000000000000000000000000C1
:101F200000000000000000000000000000000000B1
:101F300000000000000000000000000000000000A1
:101F40000000000000000000000000000000000091
:101F50000000000000000000000000000000000081
:071F6000000000000000007A
:011F67000079
:021F6800FFFF79
:020000040030CA
:0100010008F6
:0100020001FC
:0100030024D8
:01000500BD3D
:010006008079
:010008000FE8
:01000900C036
:01000A000FE6
:01000B00E014
:01000C000FE4
:01000D0040B2
:00000001FF
