:020000040000FA
:0600000029EF0DF01200D3
:020006001200E6
:080008009EAA02D0FEEF09F0F0
:020010001200DC
:06001200A6B2FED71200A9
:08001800F2A402D085EF09F00B
:0C0020001200D08E9F8AF28EF28C12002B
:04002C000700861C27
:100030000000000D0000E1000000841C0000EB0D3A
:10004000000002000000831C0000F00D0000010011
:100050000000A71B000000090000DC000000851B59
:1000600000001E0E000022000000671B0000000EB2
:1000700000001E000000991A0000000B0000CE00D6
:0200800000007E
:0E008200D9CFE6FFE1CFD9FFFE0EDBCF01F9AB
:10009000FD0EDBCF02F9FC0EDBCF03F9FB0EDBCF4D
:1000A00004F9F90EDBCFD1F9FA0EDBCFD2F904D87F
:1000B000E552E7CFD9FF1200240EE66EF40EE66E8D
:1000C000E66AE66A2DEC04F0E552E552E552E552A7
:1000D0000901CD6BCE6B010E006FCF6B050ED06F9B
:1000E000D7C9D3F9D8C9D4F9D9C9D5F9DAC9D6F954
:1000F00000C9DBF912000901CD6BCE6B010E006F58
:10010000CF6B050ED06FD7C9D3F9D8C9D4F9D9C9E7
:10011000D5F9DAC9D6F900C9DBF91200D9CFE6FF63
:10012000E1CFD9FF060EE126DF6A87EC0AF004C0B2
:10013000D7F905C0D8F906C0D9F907C0DAF9D30E46
:10014000E96E090EEA6EEE500901D71909E1EE5089
:10015000D81906E1EE50D91903E1EE50DA1900E1A1
:1001600013E00051DB5D08E1020E005D05E1D00700
:10017000D05102E1A1DFC3D0D7C9D3F9D8C9D4F98E
:10018000D9C9D5F9DAC9D6F90051030A01E1B2D0CB
:10019000010A1CE0030A02E0AEDFAFD0E6EC05F096
:1001A000000901E1ACD003EC06F0DF6E0901CD6B74
:1001B000CD51CD2BEA6A050FE96E090EEA22DFCF99
:1001C000EFFF020E006F050ED06F97D0E6EC05F042
:1001D000000901E194D003EC06F0DF6E0901025141
:1001E000DF5C73E1020EDB6A030EDB68D950030F9C
:1001F000E66E000EDA20E66E8CD8E552E552E76E28
:10020000020EE7CFDBFFDB50020A53E0030A05E0F2
:10021000010A01E056D06FDF72D00901D151D2112D
:1002200046E0CD51010842E2D950040FE66E000EBF
:10023000DA20E66ECF0EE66E090EE66E050EE66E6D
:10024000090EE66E05D0D2C9FAFF0901D151F96E47
:10025000FADF106E060EE15E10500901CE6FCFC9B5
:100260006AF9CE2B010EDB6ACE51F36E010EDBCFA5
:10027000F4FFF350F45C1AE2040EDBCFE9FF050E45
:10028000DBCFEAFFEF50E66E010EDB50EA6A690F42
:10029000E96E090EEA22E552E750EF6E040EDB2A02
:1002A000050E01E3DB2A010EDB2ADED701D023DFB6
:1002B00008D00901FA0E696FCE2BCFC96AF9CE2B8F
:1002C00000D00901030E006F14D0CD51CD2BEA6A86
:1002D000050FE96E090EEA22DFCFEFFF640ECD5D58
:1002E00008E3FA0E696FCE2B900E6A6FCE2B030EC9
:1002F000006F03D018D8FFDE00D000C9DBF9060E6E
:10030000E15C02E2E16AE552E16EE552E7CFD9FF36
:100310001200D9CFE6FFE1CFD9FF010E00D0E552A0
:10032000E7CFD9FF1200D9CFE6FFE1CFD9FF020E08
:10033000E126DF6A010EDB6ACEC9E6FF690EE66ED2
:10034000090EE66E5ED8E552E552E552DF6E03C94E
:10035000E6FFABEC04F0E552010EDB6A0901CE5179
:10036000F36E010EDBCFF4FFF350F45C0FE2010EED
:10037000DB50EA6A690FE96E090EEA22EF50E66E79
:10038000ABEC04F0E552010EDB2AE8D7DFCFE6FF45
:10039000ABEC04F0E55204C9E6FFABEC04F0E55227
:1003A000E3EC04F0020EE15C02E2E16AE552E16E88
:1003B000E552E7CFD9FF1200D9CFE6FFE1CFD9FF51
:1003C000FD0EDBCFF6FFFE0EDBCFF7FF0800F5508A
:1003D00012E0FD0EDBCFF6FFFE0EDBCFF7FF0800CD
:1003E000F550E66EABEC04F0E552FD0EDB2AFE0E96
:1003F00001E3DB2AE5D7E3EC04F0E552E7CFD9FFD0
:100400001200D9CFE6FFE1CFD9FF030EE126DF6A64
:10041000010EDB6AFC0EDB50F36E010EDBCFF4FF46
:10042000F350F45C12E2010EDB50E76EFD0EDBCF01
:10043000E9FFFE0EDBCFEAFFE750E926000EEA22D5
:10044000EF50DF1A010EDB2AE5D7DF50106E030EE6
:10045000E15C03E200D0E16AE552E16E1050E55242
:10046000E7CFD9FF1200D9CFE6FFE1CFD9FF300E99
:10047000E126DF6AD950010FE96EDACFEAFFEE6AB2
:10048000EE6AEE6AEE6AEE6AEE6AEE6AEE6AEE6AAC
:10049000EE6AEE6AEE6AEE6AEE6AEE6AEE6AEE6A9C
:1004A000EE6AEE6AEE6AEE6AEE6AEE6AEE6AEE6A8C
:1004B000EE6AEE6AEE6AEE6AEE6AEE6AEE6AEE6A7C
:1004C000EE6AEE6AEE6AEE6AEE6AEE6AEE6AEE6A6C
:1004D000EE6AEE6AEE6A2D0EDB6AD9CF10F0DACF43
:1004E00011F0DBCFF3FFDB2AF3500F011024E96E8C
:1004F000000E1120EA6EAA0EEF6ED9CF10F0DACFFF
:1005000011F02D0EDBCFF3FFDB2AF3501024E96E40
:10051000000E1120EA6EFE0EDBCFEFFFD9CF10F0F8
:10052000DACF11F02D0EDBCFF3FFDB2AF3501024CE
:10053000E96E000E1120EA6EFB0EDBCFEFFF2E0EF0
:10054000DB6AFB0EDB50F36E2E0EDBCFF4FFF350B5
:10055000F45C25E22E0EDB50E76EFC0EDBCFE9FFEC
:10056000FD0EDBCFEAFFE750E926000EEA22EF504E
:10057000E66ED9CF10F0DACF11F02E0EDBCFE6FF0A
:100580002D0EDB50E552E7241024E96E000E1120F9
:10059000EA6EE552E750EF6E2E0EDB2AD2D72D0E13
:1005A000DBCFE7FF2E0EDB50E7262D0EE7CFDBFF7C
:1005B000DB04E66ED950010FE66E000EDA20E66E1F
:1005C00020DFE552E552E552E76E2F0EE7CFDBFF65
:1005D000DB50AA0804E02F0EDB500A0814E1020EDB
:1005E000DB2A2D0EDB04E66ED950010FE66E000EFD
:1005F000DA20E66E06DFE552E552E552E76E2F0E91
:10060000E7CFDBFFE5D7D9CF10F0DACF11F02D0E11
:10061000DBCFF3FFDB2AF3500F011024E96E000E4D
:100620001120EA6E2F0EDBCFEFFFD9CF10F0DACF1B
:1006300011F02D0EDBCFF3FFDB2AF3501024E96E0F
:10064000000E1120EA6E0A0EEF6E2E0EDB6A2D0EE2
:10065000DB50F36E2E0EDBCFF4FFF350F45C14E2AC
:10066000D9CF10F0DACF11F02E0EDB500F0110248D
:10067000E96E000E1120EA6EEF50E66EABEC04F06E
:10068000E5522E0EDB2AE3D7E3EC04F0300EE15CFA
:1006900002E2E16AE552E16EE552E7CFD9FF1200CE
:1006A000DACFE4FFE2CFDAFFE9CFE4FFEACFE4FFFD
:1006B000F6CFE4FFF7CFE4FFF5CFE4FFF3CFE4FF9D
:1006C000F4CFE4FFFACFE4FF00EE00F0100EE804F0
:1006D00003E3EECFE4FFFBD700EE10F0040EE804D6
:1006E00003E3EECFE4FFFBD7E652D9CFE6FFE1CF3D
:1006F000D9FFE65275EC0CF0DF6E0C013551352B4D
:10070000EA6A380FE96E0C0EEA22DFCFEFFF640EC3
:10071000355D01E3356B372BA49AE552E552E7CFFF
:10072000D9FFE55200EE13F0040EE80403E3E5CF31
:10073000EDFFFBD700EE0FF0100EE80403E3E5CF6A
:10074000EDFFFBD7E5CFFAFFE5CFF4FFE5CFF3FFF1
:10075000E5CFF5FFE5CFF7FFE5CFF6FFE5CFEAFF01
:10076000E5CFE9FFE5CFDAFF1100DACFE4FFE2CF12
:10077000DAFFE9CFE4FFEACFE4FFE652D9CFE6FFA4
:10078000E1CFD9FFE6520B01025104E1ACA2FED742
:10079000AC9A1BD00151EA6A030FE96E0B0EEA22F4
:1007A000EFCFDFFFDF50AD6E012B640E015D01E383
:1007B000016B000EE76E0219E8AE02D0023503D0DD
:1007C000E750D880025501E20207E552E552E7CF33
:1007D000D9FFE552E5CFEAFFE5CFE9FFE5CFDAFF44
:1007E0001100DACFE4FFE2CFDAFFE9CFE4FFEACF8E
:1007F000E4FFE652D9CFE6FFE1CFD9FFE6520B0185
:10080000D05104E172A2FED7729A1BD0CF51EA6A8E
:10081000D10FE96E0B0EEA22EFCFDFFFDF50736ED0
:10082000CF2B640ECF5D01E3CF6B000EE76ED019C6
:10083000E8AE02D0D03503D0E750D880D05501E2E1
:10084000D007E552E552E7CFD9FFE552E5CFEAFF01
:10085000E5CFE9FFE5CFDAFF1100D9CFE6FFE1CF21
:10086000D9FFE6527C0EDF6ED950FB0FE96EFF0E0A
:10087000DA20EA6EEE2A000EEE22EE22EE22D950A7
:10088000FB0FE96EFF0EDA20EA6E040EE76ED890D9
:10089000EF36010EEB36020EEB36030EEB36E706B3
:1008A000F6E1106A240E116EF40E126E136A10C077
:1008B00004F011C005F012C006F013C007F0FB0EE3
:1008C000DBCF09F0FC0EDBCF0AF0FD0EDBCF0BF027
:1008D000FE0EDBCF0CF051EC0CF0FB0E04C0DBFF86
:1008E000FC0E05C0DBFFFD0E06C0DBFFFE0E07C0E1
:1008F000DBFFFB0EDBCFE6FFFC0EDBCFE6FFDFCF3F
:10090000E6FFBFEC0BF0E552E552E552AC8AAC9E37
:100910009D8A9F88E552E552E7CFD9FF1200D9CFD3
:10092000E6FFE1CFD9FFE6527C0EDF6E670EE66E82
:10093000E66ADFCFE6FF83EC0BF0E552E552E552C5
:10094000D08E718E728A729EA38AA58AE552E55274
:10095000E7CFD9FF1200D9CFE6FFE1CFD9FFACA294
:10096000FED70B010051002BEA6A030FE96E0B0E54
:10097000EA22FE0EDBCFEFFF022B640E005D01E3E7
:10098000006B010E00D0E552E7CFD9FF1200D9CF9E
:10099000E6FFE1CFD9FF72A2FED70B01CE51CE2BDD
:1009A000EA6AD10FE96E0B0EEA22FE0EDBCFEFFFF3
:1009B000D02B640ECE5D01E3CE6B010E00D0E5526C
:1009C000E7CFD9FF1200D9CFE6FFE1CFD9FF060E5E
:1009D000E126010EF36E020EF3CFDBFF030EDB6A9E
:1009E000020EDBCF10F0DB06030EDBCF11F001E2CD
:1009F000DB061050111006E0040EE66E09EC0DF057
:100A0000E552EED7000E0B01E76E0219E8AE02D0F8
:100A1000023503D0E750D880025523E20151EA6A3B
:100A2000030FE96E0B0EEA22010EEFCFDBFFACA243
:100A3000FED7010EDB50AD6EACA2FED70B01012B31
:100A4000640E015D01E3016B000EE76E0219E8AE72
:100A500002D0023503D0E750D880025501E20207E8
:100A6000D1D7010EF36E040EF3CFDBFF050EDB6A68
:100A7000040EDBCF10F0DB06050EDBCF11F001E238
:100A8000DB061050111006E0040EE66E09EC0DF0C6
:100A9000E552EED7106E060EE15C02E2E16AE55225
:100AA000E16E1050E552E7CFD9FF1200D9CFE6FF33
:100AB000E1CFD9FF060EE126010EF36E020EF3CF51
:100AC000DBFF030EDB6A020EDBCF10F0DB06030E4A
:100AD000DBCF11F001E2DB061050111006E0040E2E
:100AE000E66E09EC0DF0E552EED7000E0B01E76E55
:100AF000D019E8AE02D0D03503D0E750D880D05519
:100B000023E2CF51EA6AD10FE96E0B0EEA22010E01
:100B1000EFCFDBFF72A2FED7010EDB50736E72A225
:100B2000FED70B01CF2B640ECF5D01E3CF6B000E20
:100B3000E76ED019E8AE02D0D03503D0E750D880A8
:100B4000D05501E2D007D1D7010EF36E040EF3CFDA
:100B5000DBFF050EDB6A040EDBCF10F0DB06050EB3
:100B6000DBCF11F001E2DB061050111006E0040E9D
:100B7000E66E09EC0DF0E552EED7106E060EE15C64
:100B800002E2E16AE552E16E1050E552E7CFD9FF8B
:100B90001200D9CFE6FFE1CFD9FFE652DF6AA39A70
:100BA000000E0C01E76E3719E8AE02D0373503D0DE
:100BB000E750D880375502E2010EDF6EA38ADF507E
:100BC00000D0E552E552E7CFD9FF1200D9CFE6FFBA
:100BD000E1CFD9FFE652DF6A9D9A000E0B01E76E66
:100BE0006919E8AE02D0693503D0E750D88069555D
:100BF00002E2010EDF6E9D8ADF5000D0E552E55221
:100C0000E7CFD9FF1200D9CFE6FFE1CFD9FFE652F7
:100C10009D9A0B016851682BEA6A6A0FE96E0B0E08
:100C2000EA22EFCFDFFF640E685D01E3686B000E20
:100C3000E76E6919E8AE02D0693503D0E750D88075
:100C4000695501E269079D8ADF5000D0E552E552FF
:100C5000E7CFD9FF1200D9CFE6FFE1CFD9FFE652A7
:100C6000A39A0C013651362BEA6A380FE96E0C0E46
:100C7000EA22EFCFDFFF640E365D01E3366B000E34
:100C8000E76E3719E8AE02D0373503D0E750D88089
:100C9000375501E237079D8ADF5000D0E552E55213
:060CA000E7CFD9FF1200AE
:0A0CA600D9CFE6FFE1CFD9FF030E1E
:100CB000E126300EF36E010EF3CFDBFF750EF36EFF
:100CC000020EF3CFDBFF010EDF6EDF0425E105DA54
:100CD00000000000839283840000000083860000EF
:100CE00000008350800B01E0010EDF6E8396838647
:100CF000000000008396010EDB06020E01E2DB0617
:100D0000D950010FE96EDACFEAFFEE50ED1003E1A2
:100D1000ECD9FF0E04D0D9D7E8D9000E00D0106E60
:100D2000030EE15C02E2E16AE552E16E1050E55229
:100D3000E7CFD9FF1200D9CFE6FFE1CFD9FF8392E9
:100D400083940000FE0EDB50F00B106E0F0E8C141F
:100D500010108C6E00008386000000008396E55220
:100D6000E7CFD9FF1200D9CFE6FFE1CFD9FF9BDF54
:100D7000839283940000FE0EDB50F00B106E0F0E7A
:100D80008C1410108C6E0000838600000000839687
:100D9000FE0EDB38F00BF00B106E0F0E8C141010E3
:100DA0008C6E00008386000000008396E552E7CF3A
:100DB000D9FF1200D9CFE6FFE1CFD9FF74DF8382DC
:100DC00083940000FE0EDB50F00B106E0F0E8C149F
:100DD00010108C6E00008386000000008396FE0ECB
:100DE000DB38F00BF00B106E0F0E8C1410108C6EA5
:100DF00000008386000000008396E552E7CFD9FF0C
:100E00001200D9CFE6FFE1CFD9FF0B0EE1266DD955
:100E1000280EF36E010EF3CFDBFF020EDB6A010E2C
:100E2000DBCF10F0DB06020EDBCF11F001E2DB06B8
:100E30001050111006E0040EE66E09EC0DF0E552BC
:100E4000EED7300EE66E77DFE5520A0EF36E030E34
:100E5000F3CFDBFF040EDB6A030EDBCF10F0DB0603
:100E6000040EDBCF11F001E2DB061050111006E09A
:100E7000040EE66E09EC0DF0E552EED7300EE66E8C
:100E80005ADFE5520A0EF36E050EF3CFDBFF060EB6
:100E9000DB6A050EDBCF10F0DB06060EDBCF11F0B0
:100EA00001E2DB061050111006E0040EE66E09ECBC
:100EB0000DF0E552EED7300EE66E3DDFE5520A0E3C
:100EC000F36E070EF3CFDBFF080EDB6A070EDBCFF6
:100ED00010F0DB06080EDBCF11F001E2DB0610504C
:100EE000111006E0040EE66E09EC0DF0E552EED7A7
:100EF000200EE66E20DFE5520A0EF36E090EF3CFE8
:100F0000DBFF0A0EDB6A090EDBCF10F0DB060A0EF0
:100F1000DBCF11F001E2DB061050111006E0040EE9
:100F2000E66E09EC0DF0E552EED7280EE66E1BDFFB
:100F3000E552B9DEDF6EDF5010E10F0EE66E13DF13
:100F4000E552010EE66E0FDFE552040EE66E0BDF92
:100F5000E552060EE66E07DFE5520B0EE15C03E29A
:100F600000D0E16AE552E16EE552E7CFD9FF120009
:100F7000D9CFE6FFE1CFD9FFFE0EDBCF1FFEE55252
:100F8000E7CFD9FF1200010EE66EEDDEE5520E014D
:100F90001E6B1200D9CFE6FFE1CFD9FFE652FE0E5D
:100FA000DB500E011F5D23E11E5101E137D0100E11
:100FB0001E5D0EE1800EE66ED6DEE552DF6A100E93
:100FC000DF5C06E2140EE66ECEDEE552DF2AF7D7CE
:100FD000100EE66EC8DEE552200EE66EEBDEE55240
:100FE000100EE66EC0DEE5520E011E0717D0100E81
:100FF0001E5D05E1C00EE66EB6DEE55208D0200E9D
:101000001E5D05E31E6B020EE66EADDEE552FE0EC2
:10101000DBCFE6FFCFDEE5520E011E2BE552E55297
:10102000E7CFD9FF1200EDDE010EE66E9CDEE55241
:101030000E011E6B1200D9CFE6FFE1CFD9FFE652B9
:10104000010EE66E90DEE552DF6A100EDF5C1CE2F8
:10105000FD0EDBCFE9FFFE0EDBCFEAFFEF50E66EC1
:10106000DF50EA6A200FE96E0E0EEA22E552E750E1
:10107000EF6EFD0EDBCFE9FFDB2AFE0EDBCFEAFFD2
:1010800001E3DB2ADF2AE1D7C00EE66E6CDEE55213
:10109000DF6A100EDF5C1CE2FD0EDBCFE9FFFE0E07
:1010A000DBCFEAFFEF50E66EDF50EA6A200FE96E11
:1010B0000E0EEA22E552E750EF6EFD0EDBCFE9FFA0
:1010C000DB2AFE0EDBCFEAFF01E3DB2ADF2AE1D7D2
:1010D000E552E552E7CFD9FF1200958E958C958A9F
:1010E00095889596959495921200959E959C959AC3
:0A10F000959895969594959212003C
:0610FA00300EE66E120E3E
:10110000E66EDD0EE66ECC0EE66E0A0EE66EAA0EFA
:10111000E66E41EC00F0106E060EE15E105012001B
:101120000D01DF5100081AE2C3EC07F00D01E05198
:10113000EA6AAC0FE96E0D0EEA22EF500DE0E051C5
:10114000EA6AAC0FE96E0D0EEA22EF50E66ECAECC9
:1011500007F0E5520D01E02BE02BDF071200D9CF9D
:10116000E6FFE1CFD9FFE652DF6A030EDF5C1AE249
:10117000DF50E76EFD0EDBCFE9FFFE0EDBCFEAFFAF
:10118000E750E926000EEA22EF50E66EDFCFE6FFD9
:10119000E66A47EC0BF0E552E552E55209EC00F047
:1011A000DF2AE3D7E552E552E7CFD9FF1200D9CFC6
:1011B000E6FFE1CFD9FFE652DF6A030EDF5C1BE2F8
:1011C000DFCFE6FFE66AF8EC0BF0E552E552E66E9B
:1011D000DF50E76EFD0EDBCFE9FFFE0EDBCFEAFF4F
:1011E000E750E926000EEA22E552E750EF6E09ECDF
:1011F00000F0DF2AE2D7E552E552E7CFD9FF12002F
:10120000D9CFE6FFE1CFD9FF030EE66EFD0EDBCFAF
:10121000E6FFFE0EDBCFE6FFFA0EE66E33EC02F0E1
:10122000E552E552E552E552E552E7CFD9FF12000B
:10123000D9CFE6FFE1CFD9FF020EE126010EDB6A2E
:10124000050EE66EE66A000EE66E0D0EE66EFD0E0B
:10125000DBCFE6FFFE0EDBCFE6FF26EC0CF0106ED8
:10126000060EE15E1050000941E10C0EDF6EDF500A
:10127000E76EFD0EDBCFE9FFFE0EDBCFEAFFE750A6
:10128000E926000EEA22EF501BE0DF50DF2AE76E6E
:10129000FD0EDBCFE9FFFE0EDBCFEAFFE750E926CC
:1012A000000EEA22EF50E66E0D01DE51DE2BEA6AF7
:1012B000AC0FE96E0D0EEA22E552E750EF6ED7D77C
:1012C0000D01DE51DE2BEA6AAC0FE96E0D0EEA224B
:1012D000EF6ADE51106E116AD890115004E6A00E2C
:1012E000105C000E115801E3DE6BDF2B010EDB50AA
:1012F000106E020EE15C03E200D0E16AE552E16E9D
:0A1300001050E552E7CFD9FF1200AC
:06130A00DACFE4FFE2CFA0
:10131000DAFFE9CFE4FFEACFE4FFF6CFE4FFF7CF4F
:10132000E4FFF5CFE4FFF3CFE4FFF4CFE4FFFACF1F
:10133000E4FF00EE00F0100EE80403E3EECFE4FF5C
:10134000FBD700EE10F0040EE80403E3EECFE4FF59
:10135000FBD7E652F2940E010E2B000E0F23102B3A
:101360001123122B1323142B1523162B17231807C5
:10137000195B193504E218510008000E195508E3ED
:101380001A2B000E1B231C231D23C80E186F196B6C
:101390000251031107E005D003CEFAFF0E010251FE
:1013A000F96EFADF00CEE6FF01CEE6FFD1EC0CF0DD
:1013B000E552E552E55200EE13F0040EE80403E3B3
:1013C000E5CFEDFFFBD700EE0FF0100EE80403E3CE
:1013D000E5CFEDFFFBD7E5CFFAFFE5CFF4FFE5CF93
:1013E000F3FFE5CFF5FFE5CFF7FFE5CFF6FFE5CF5C
:1013F000EAFFE5CFE9FFE5CFDAFF1100DACFE4FF3E
:10140000E2CFDAFFE9CFE4FFEACFE4FFF6CFE4FF73
:10141000F7CFE4FFF5CFE4FFF3CFE4FFF4CFE4FF31
:10142000FACFE4FF00EE00F0100EE80403E3EECF85
:10143000E4FFFBD700EE10F0040EE80403E3EECF68
:10144000E4FFFBD7E652D9CFE6FFE1CFD9FFE65262
:1014500094EC0CF0DF6E0B016751672BEA6A6A0FA0
:10146000E96E0B0EEA22DFCFEFFF640E675D01E34A
:10147000676B692B9E9AE552E552E7CFD9FFE5529B
:1014800000EE13F0040EE80403E3E5CFEDFFFBD715
:1014900000EE0FF0100EE80403E3E5CFEDFFFBD7FD
:1014A000E5CFFAFFE5CFF4FFE5CFF3FFE5CFF5FF9A
:1014B000E5CFF7FFE5CFF6FFE5CFEAFFE5CFE9FFA0
:0614C000E5CFDAFF110088
:0A14C600D9CFE6FFE1CFD9FF9F0E5A
:1014D000E66EEDEC0CF0E552FD0EDBCF00FEFE0EED
:1014E000DBCF01FEFB0EDBCF02FEFC0EDBCF03FEEB
:1014F000F194FD0EDBCFE6FFFE0EDBCFE6FFD1EC75
:101500000CF0E552E552E552E7CFD9FF1200D9CFF2
:10151000E6FFE1CFD9FF040EE126F29A1ACEDFFFF3
:10152000010E1BCEDBFF020E1CCEDBFF030E1DCE19
:10153000DBFFF28ADECF04F0DECF05F0DECF06F06F
:10154000DDCF07F0DD52DD52040EE15C03E200D096
:10155000E16AE552E16EE552E7CFD9FF1200F29E53
:0E1560000E011A6B1B6B1C6B1D6BF28E1200C2
:02156E002C0E41
:10157000F66E000EF76E000EF86E0D010900F550C4
:10158000E66F0900F550E76F03E1E66701D03DD053
:101590000900F550E16F0900F550E26F0900F550C0
:1015A000E36F09000900F550E96E0900F550EA6E95
:1015B000090009000900F550E46F0900F550E56FD6
:1015C00009000900F6CFE8FDF7CFE9FDF8CFEAFD05
:1015D000E1CDF6FFE2CDF7FFE3CDF8FF0D01E453D7
:1015E00002E1E55307E00900F550EE6EE407F8E28A
:1015F000E507F9D7E8CDF6FFE9CDF7FFEACDF8FF2B
:0C1600000D01E607000EE75BBFD71200EB
:04160C00D9CFE6FF4D
:10161000E1CFD9FFE652B3EC0CF0000EE66EE66ABD
:10162000E00EE66EB10EE66E63EC0AF0E552E552AE
:10163000E552E55213EC08F07DEC08F011EC00F0F7
:101640000E01640E0E5D000E0F5905E33AEC0DF02D
:101650000E010E6B0F6B0E01020E125D000E135980
:1016600005E38EEC00F00E01126B136B0E01F40E0D
:10167000145D010E155905E390EC08F00E01146B92
:0E168000156BDED7E552E552E7CFD9FF120019
:02168E00D9CFB2
:10169000E6FFDACFE6FFE1CFD9FFE2CFDAFFE6528D
:1016A000DF6AFD0EDBCF11F011C010F0030E111434
:1016B000AA6EFF0EE76EFC0EDBCF10F0E75010169F
:1016C000116A1050A96EFB0EDB50A86EA69EA69C58
:1016D000A684F250800B01E0010EDF6EF29E550EE3
:1016E000A76EAA0EA76EA682A6B2FED7DF50E8B0FC
:1016F000F28EE8A0F29EA694E552E552E5CFDAFF1D
:06170000E7CFD9FF120043
:0A170600D9CFE6FFDACFE6FFE1CF0E
:10171000D9FFE2CFDAFF726A716AFD0EDBB0728820
:10172000DBA202D0728C718CDBB4728EDBA602D08D
:10173000718801D0718ADBA802D0728401D07294C2
:10174000DBBA7186DBAC02D0A38A01D0A39ADBAEF0
:1017500002D0A38801D0A398FB0EDB50756EFC0E5F
:10176000DBCF11F011C010F0116A1050766E728A42
:0E177000718EE552E5CFDAFFE7CFD9FF120008
:02177E00D9CFC1
:10178000E6FFDACFE6FFE1CFD9FFE2CFDAFFAC6ABE
:10179000AB6AFD0EDBB0AC88DBA202D0AC8CAB8CAC
:1017A000DBB4AC8EDBA602D0AB8801D0AB8ADBB851
:1017B000AC84DBBAAB86DBAC02D09D8A01D09D9AAB
:1017C000DBAE02D09D8801D09D98FB0EDB50AF6E42
:1017D000FC0EDBCF11F011C010F0116A1050B06E8A
:1017E000AC8AAB8EE552E5CFDAFFE7CFD9FF120026
:1017F000D9CFE6FFDACFE6FFE1CFD9FFE2CFDAFFBC
:10180000FC0EDBCF10F0FD0EDBCF11F011C010F09D
:10181000116A030E1014AA6EFF0EE76EFC0EDBCFEA
:1018200010F0FD0EDBCF11F0E7501016116A1050CA
:10183000A96EA69CA69EA68000000000A85000D01D
:0C184000E552E5CFDAFFE7CFD9FF120038
:04184C00D9CFE6FF0B
:10185000DACFE6FFFA0EE3CFD9FFFB0EE3CFDAFFD4
:10186000FC0EE3CFE9FFFD0EE3CFEAFFF80EE350F5
:1018700003E1F90EE3500AE0F80EE30602E2F90E86
:10188000E306DE50EF5C02E1EE66F0D7F36EFF0E8A
:10189000E3CFDAFFE552FF0EE3CFD9FFE552F35075
:0218A000120034
:0E18A200036A026A016A006A200EE76ED8909F
:1018B000043605360636073600360136023603365C
:1018C0000950005C0A5001580B5002580C50035844
:1018D00009E30950005E0A50015A0B50025A0C509D
:0A18E000035A042AE72EE4D7120091
:0618EA00D9CFE6FFDACFC2
:1018F000E6FFE1CFD9FFE2CFDAFFE652F20E0D01AB
:10190000ED1771AC03D0ED9171B0ED8171B4ED853F
:1019100071B2ED877450DF6EDF50E552E552E5CFCE
:08192000DAFFE7CFD9FF120046
:08192800D9CFE6FFDACFE6FF9C
:10193000E1CFD9FFE2CFDAFFE652F20E0D01EE174A
:10194000ABAC03D0EE91ABB0EE81ABB4EE85ABB2F5
:10195000EE87AE50DF6EDF50E552E552E5CFDAFF9D
:06196000E7CFD9FF1200E1
:0A196600C26A0F01386B396B3A6B4F
:101970003B6B3C6B700ED36E96908490949C948ECF
:10198000959E959C959A9598959695949592816833
:101990009296809692908090929480949292809267
:0219A000120033
:0E19A200D9CFE6FFDACFE6FFE1CFD9FFE2CFE3
:1019B000DAFFE652E652FC0EDBCFDEFFDBCFDDFFC7
:1019C000010EDB50D76EDF50D66EE552E552E55280
:0A19D000E5CFDAFFE7CFD9FF1200E0
:0619DA00D9CFE6FFDACFD1
:1019E000E6FFE1CFD9FFE2CFDAFFFD0EDB507F0B40
:1019F000D56ED76AD66AF294FD0EDBAE02D0F28ABB
:101A000001D0F29AD58EE552E5CFDAFFE7CFD9FFC4
:021A10001200C2
:0E1A1200FF0EE350146E480E01D04C0EE76E2E
:101A2000E72EFED7E76AE72EFED7142EF7D7000081
:021A30001200A2
:0E1A3200380EF36E00EE00F00F0E01D8120019
:101A4000EA6002D0EE6AFCD7F350E9601200EE6A59
:021A5000FCD7C1
:0E1A520010EE60F020EE60F0F86A0F9CB7EC2A
:0E1A60000AF003EC00F006EC0BF0FBD71200CE
:021A6E000D0168
:101A7000F06B12000D01F00503E1F06B849003D0D0
:081A8000010EF06F84801200DA
:081A8800202020202020202056
:091A90002020202020202020004D
:071A99000000000000000046
:101AA0000000000000000000000000000000000036
:101AB0000000000000000000000000000000000026
:101AC0000000000000000000000000000000000016
:101AD0000000000000000000000000000000000006
:101AE00000000000000000000000000000000000F6
:101AF00000000000000000000000000000000000E6
:101B000000000000000000000000000000000000D5
:101B100000000000000000000000000000000000C5
:101B200000000000000000000000000000000000B5
:101B300000000000000000000000000000000000A5
:101B40000000000000000000000000000000000095
:101B50000000000000000000000000000000000085
:071B6000000000000000007E
:091B670000000000000000000075
:101B7000000000000000000000000000000000C89D
:051B8000000000000060
:0B1B8500000000000000000000000055
:101B90000000000000000000000000000000000045
:071BA000000000000000003E
:091BA70000000000000000000035
:101BB0000000000000000000000000000000000025
:101BC0000000000000000000000000000000000015
:101BD0000000000000000000000000000000000005
:101BE00000000000000000000000000000000000F5
:101BF00000000000000000000000000000000000E5
:101C000000000000000000000000000000000000D4
:101C100000000000000000000000000000000000C4
:101C200000000000000000000000000000000000B4
:101C300000000000000000000000000000000000A4
:101C40000000000000000000000000000000000094
:101C50000000000000000000000000000000000084
:101C60000000000000000000000000000000000074
:101C70000000000000000000000000000000000064
:031C800000000061
:011C83000060
:021C8400FFFF60
:0A1C86002B434D5449002B434D47FA
:101C900052000000000000000000000000000000F2
:101CA0000000000000000000000000000000000034
:101CB0000000000000000000000000000000000024
:101CC0000000000000000000000000000000000014
:101CD0000000000000000000000000000000000004
:101CE00000000000000000000000000000000000F4
:101CF00000000000000000000000000000000000E4
:101D000000000000000000000000000000000000D3
:101D100000000000000000000000000000000000C3
:101D200000000000000000000000000000000000B3
:101D300000000000000000000000000000000000A3
:101D40000000000000000000000000000000000093
:101D50000000000000000000000000000000000083
:071D6000000000000000007C
:020000040030CA
:0100010008F6
:0100020001FC
:0100030024D8
:01000500BD3D
:010006008079
:010008000FE8
:01000900C036
:01000A000FE6
:01000B00E014
:01000C000FE4
:01000D0040B2
:00000001FF
